:10000000B8C00000D4C00000D2C00000D0C00000C2
:10001000CEC00000CCC00000CAC00000C8C00000B4
:10002000C6C00000C4C000006CC60000C0C0000014
:10003000BEC00000BCC00000BAC00000B8C00000D4
:10004000B6C00000B4C00000B2C00000B0C00000E4
:10005000AEC00000ACC00000AAC00000A8C00000F4
:10006000A6C00000C8C3000098C30000A0C00000E4
:100070009EC000009CC000009AC0000098C0000014
:1000800096C0000094C0000092C0000090C0000024
:100090008EC000008CC0000005010905A1011500FB
:1000A0002501350045017501951005091901291033
:1000B000810205012507463B017504950165140978
:1000C00039814265009501810126FF0046FF000944
:1000D000300931093209357508950481020600FF9F
:1000E0000920950181020A212695089102C012017A
:1000F0000002000000400D0F92000001010200010B
:100100000902290001010080FA090400000203002D
:1001100000000921110100012256000705020340D9
:10012000000507058103400005040309041C03487A
:10013000004F0052004900200043004F002E002CC9
:10014000004C00540044002E000000240350004FD7
:10015000004B004B0045004E00200043004F004E76
:1001600000540052004F004C004C0045005200006B
:10017000000011241FBECFEFD0E2DEBFCDBF11E0E3
:10018000A0E0B1E0EAEDF1E100E00BBF02C00790B2
:100190000D92AA30B107D9F712E0AAE0B1E001C090
:1001A0001D92A532B107E1F755D20C94EB0828CF88
:1001B000089508950895FC0198E0DF01892F1D92AC
:1001C0008A95E9F780E88383848385838683928395
:1001D00080910001909101011816190674F4DF0155
:1001E000E0E1F2E088E001900D928150E1F780912A
:1001F000000190910101019736C1209102013091D7
:100200000301409104015091050152FF09C0809102
:100210000B0191E0892780930B01882309F4DBC04F
:10022000C90181709070892B29F08081918184604F
:10023000918380838091020181FF05C0808191813B
:100240008260918380838091020182FF05C080815A
:1002500091818860918380838091020183FF05C032
:10026000808191818160918380838091020184FFEC
:1002700005C080819181806191838083809102019A
:1002800085FF05C080819181806291838083809108
:10029000020186FF05C08081918180649183808303
:1002A0008091020187FF05C08081918180689183E0
:1002B00080838091020190910301A0910401B0918B
:1002C000050190FF05C080819181926091838083B8
:1002D0008091020190910301A0910401B091050168
:1002E00091FF05C08081918191609183808380918D
:1002F000020190910301A0910401B091050192FFC8
:1003000005C08081918190619183808380910201F9
:1003100090910301A0910401B091050193FF05C0E4
:10032000808191819062918380838091020190917C
:100330000301A0910401B091050194FF05C08081E3
:100340009181946091838083809102019091030157
:10035000A0910401B0910501A1FF05C080819181A8
:100360009860918380832091020130910301409134
:10037000040150910501852F9927AA27BB27682FD3
:100380006170DA01C90179E1B695A79597958795CE
:100390007A95D1F7982F917046FF09C01282662393
:1003A00011F087E017C09923B1F081E013C047FF37
:1003B0000AC084E08283662311F085E00BC0992394
:1003C00051F083E007C0662311F086E003C0992353
:1003D00011F082E08283809106018383809107017E
:1003E000848380910801858380910901868320910F
:1003F000020130910301409104015091050135FF44
:1004000002C0148204C036FF02C08FEF8483C9018A
:1004100080709078892B11F0138204C040FF02C0D5
:100420008FEF8383209102013091030140910401F9
:100430005091050142FF02C0168204C043FF02C072
:100440008FEF868344FF02C0158204C045FF02C0BF
:100450008FEF8583A0E1B2E088E001900D9281509A
:10046000E1F785E090E09093010180930001089509
:10047000CF92DF92EF92FF920F931F93DF93CF9370
:10048000CDB7DEB728970FB6F894DEBF0FBECDBF4D
:1004900080911C02843009F0B0C082E08093E900B2
:1004A0008091E80082FF15C08091E80085FF0CC0B4
:1004B0006E010894C11CD11CC60167E070E040E0E9
:1004C00050E08CD28823C1F78091E8008B7780932D
:1004D000E80081E08093E9008091E80080FF15C08A
:1004E0008E010F5F1F4FC80166DEE02E012F8E2D9B
:1004F000902F68E070E040E050E0C2D28823B9F766
:100500008091E8008E778093E80080910A0188232B
:1005100029F538D1882311F122D18F3F21F481E0D0
:1005200080930A016AC0109201011092000110929A
:10053000020110920301109204011092050180E85B
:10054000809306018093070180930801809309013D
:1005500001C005D117D18823E1F74FC080910A016E
:10056000882309F44AC00ED1883008F446C010929E
:1005700001011092000110920201109203011092E9
:10058000040110920501CC24DD24E0900201F090DA
:1005900003010091040110910501E1D090E0A0E079
:1005A000B0E00C2C04C0880F991FAA1FBB1F0A942F
:1005B000D2F78E299F29A02BB12B80930201909313
:1005C0000301A0930401B093050188E090E0C80EF8
:1005D000D91E90E2C916D104C1F6C1D0809306019C
:1005E000BED080930701BBD080930801B8D0809320
:1005F000090182E09FD010920A0128960FB6F89464
:10060000DEBF0FBECDBFCF91DF911F910F91FF9045
:10061000EF90DF90CF90089582E060EC42E382D2C9
:1006200081E061EC42E37EC284B7877F84BF88E1CA
:100630000FB6F89480936000109260000FBEE1E660
:10064000F0E080E88083108260E875E280E090E06E
:1006500046D03CC3E9DF78940BDF86D5FDCFDA01C5
:100660009330B1F0943028F4913041F0923079F524
:100670000AC0913211F1923251F524C0EEEEF0E051
:1006800022E130E028C0E0E0F1E029E230E023C0E0
:10069000813049F0813018F08230C9F40AC0E9E2B3
:1006A000F1E0849103C0EDE2F1E08491282F30E085
:1006B00012C0EBE4F1E08491F9CFE2E1F1E029E04E
:1006C00030E009C0E8E9F0E026E530E004C0E0E011
:1006D000F0E020E030E0ED93FC93C90108959B0128
:1006E000AC01F89460E079E08DE390E052D52150C0
:1006F0003040404050405695479537952795309368
:10070000CD002093CC0082E08093C80088E98093DC
:10071000C90086E08093CA0010928D0180918D01FE
:1007200080938C0110920F0280910F0280930E0231
:1007300078940895282F90918C019F5F97FD90E009
:1007400080918D018917E1F3E92FF0E0E45FFE4F1E
:10075000208390938C0188EB8093C9000895909139
:100760000E0280910F029817D1F390910F029F5FB4
:1007700097FD90E0E92FF0E0E257FE4F80819093E3
:100780000F02089580910E0290910F02891710F0C8
:10079000891B08958058891B08951F920F920FB6E8
:1007A0000F920BB60F9211248F939F93EF93FF93A9
:1007B00090918C0180918D01981721F488E98093A4
:1007C000C9000EC090918D019F5F97FD90E0E92FC9
:1007D000F0E0E45FFE4F80818093CE0090938D0126
:1007E000FF91EF919F918F910F900BBE0F900FBED5
:1007F0000F901F9018951F920F920FB60F920BB685
:100800000F9211242F938F939F93EF93FF93209137
:10081000CE0090910E029F5F97FD90E080910F02B5
:10082000981739F0E92FF0E0E257FE4F20839093BC
:100830000E02FF91EF919F918F912F910F900BBE20
:100840000F900FBE0F901F9018959C0140912302AE
:10085000509124024617570718F4F90190E03DC063
:100860006115710511F0AB01F8CF8091E8008E772A
:100870008093E80040E050E0F0CF80911C02882394
:1008800009F441C0853009F440C08091E80083FD3F
:100890003EC08091E80082FD30C08091E80080FF7A
:1008A0001CC02091F2003091F30007C08191809329
:1008B000F100415050402F5F3F4F4115510519F055
:1008C0002034310598F390E02034310509F491E0AB
:1008D0008091E8008E778093E8004115510569F614
:1008E000992359F60AC080911C02882361F0853053
:1008F00061F08091E80083FD0AC08091E80082FFEA
:10090000F2CF80E0089582E0089583E0089581E0C9
:1009100008959C01409123025091240246175707E5
:1009200018F4F90190E03EC06115710511F0AB01BA
:10093000F8CF8091E8008E778093E80040E050E0A7
:10094000F0CF80911C02882309F442C0853009F45D
:1009500041C08091E80083FD3FC08091E80082FDA6
:1009600031C08091E80080FF1DC02091F2003091DD
:10097000F30008C084918093F100319641505040BB
:100980002F5F3F4F4115510519F02034310590F389
:1009900090E02034310509F491E08091E8008E77F1
:1009A0008093E8004115510561F6992351F60AC07C
:1009B00080911C02882361F0853061F08091E8000D
:1009C00083FD0AC08091E80082FFF2CF80E00895A5
:1009D00082E0089583E0089581E00895BF92CF9268
:1009E000DF92EF92FF920F931F93CF93DF93182F15
:1009F000092F7B016A01EFD0B82E8823B1F5812F32
:100A0000902F9C01E901C114D10439F0F6018081D5
:100A10009181E81AF90AC80FD91F00E010E022C03E
:100A20008091E80085FD16C08091E8008B77809367
:100A3000E8009AD3C114D10449F0F6018081918174
:100A4000800F911F9183808385E010C0C4D08823DC
:100A500049F00CC08091F10089930894E108F108F5
:100A60000F5F1F4FE114F104D9F68B2DDF91CF9169
:100A70001F910F91FF90EF90DF90CF90BF9008955E
:100A8000BF92CF92DF92EF92FF920F931F93CF937B
:100A9000DF93182F092F7B016A019DD0B82E882380
:100AA000B1F5812F902F9C01E901C114D10439F0D7
:100AB000F60180819181E81AF90AC80FD91F00E078
:100AC00010E022C08091E80085FD16C08091E8000A
:100AD0008E778093E80048D3C114D10449F0F60121
:100AE00080819181800F911F9183808385E010C068
:100AF00072D0882349F00CC089918093F10008944A
:100B0000E108F1080F5F1F4FE114F104D9F68B2DB6
:100B1000DF91CF911F910F91FF90EF90DF90CF90D9
:100B2000BF900895382F282F2EC0822F8F7080936A
:100B3000E900231721F4762F942F50E006C070911E
:100B4000EC009091ED005091F00091FF1BC080915E
:100B5000EB008E7F8093EB008091ED008D7F809382
:100B6000ED008091EB0081608093EB007093EC00CE
:100B70009093ED005093F0008091EE0087FD02C04D
:100B800080E008952F5F273080F23F703093E900B6
:100B900081E0089580911D0288239CF404C0809117
:100BA0001C028823B9F08091E80082FFF8CF809181
:100BB000E8008B778093E800089580911C028823D9
:100BC00049F08091E80080FFF8CF8091E8008E77AF
:100BD0008093E80008954091E4005091E50024E6F8
:100BE0008091EC0080FF24C08091E80080FD1EC051
:100BF00080911C02882311F482E00895853011F45D
:100C000083E008958091EB0085FF02C081E00895A4
:100C10008091E4009091E5008417950709F3222361
:100C200011F484E008952150AC01DACF80E00895FA
:100C30008091E80082FFDCCFF9CFEF92FF920F9313
:100C40001F9352D059D008ED10E0F80180818F77C2
:100C5000808380818068808380818F7D8083E7EDC1
:100C6000F0E080818068808319BC10921C02109291
:100C7000180210921A021092190280EEE82EF12C3E
:100C8000F70180818B7F8083F80180818160808380
:100C900080E060E042E346DFE1EEF0E080818E7FBD
:100CA0008083E2EEF0E080818160808380818860D3
:100CB0008083F70180818E7F8083F801808180614D
:100CC00080831F910F91FF90EF900895E8EDF0E081
:100CD00080818F7E8083E7EDF0E08081816080837A
:100CE00081E080931B02A9CFE8EDF0E080818C7F4A
:100CF00080831092E20008951092DA001092E100D1
:100D000008951F920F920FB60F920BB60F921124F7
:100D10002F933F934F935F936F937F938F939F9303
:100D2000AF93BF93EF93FF938091E10082FF0AC0DE
:100D30008091E20082FF06C08091E1008B7F80936A
:100D4000E10011D28091DA0080FF1DC08091D800AF
:100D500080FF19C08091DA008E7F8093DA00809145
:100D6000D90080FF0CC084E189BD86E189BD09B44A
:100D700000FEFDCF81E080931C021ADA04C019BC8A
:100D800010921C0216DA8091E10080FF18C0809159
:100D9000E20080FF14C08091E2008E7F8093E20029
:100DA0008091E20080618093E2008091D8008062AF
:100DB0008093D80019BC85E080931C02D4D1809127
:100DC000E10084FF2FC08091E20084FF2BC084E10A
:100DD00089BD86E189BD09B400FEFDCF8091D800B0
:100DE0008F7D8093D8008091E1008F7E8093E10019
:100DF0008091E2008F7E8093E2008091E20081602A
:100E00008093E20080911802882311F084E007C0EB
:100E10008091E30087FD02C081E001C083E0809300
:100E20001C02A1D18091E10083FF22C08091E200E9
:100E300083FF1EC08091E100877F8093E10082E004
:100E400080931C02109218028091E1008E7F8093A3
:100E5000E1008091E2008E7F8093E2008091E200C9
:100E600080618093E20080E060E042E35BDE7BD162
:100E7000FF91EF91BF91AF919F918F917F916F9172
:100E80005F914F913F912F910F900BBE0F900FBE2E
:100E90000F901F9018951F93DF93CF93CDB7DEB7B8
:100EA000AC970FB6F894DEBF0FBECDBFEDE1F2E018
:100EB0008091F100819322E0E532F207C9F77AD9F7
:100EC0008091E80083FF37C180911D0230911E029E
:100ED000353009F487C0363040F43130C9F1313053
:100EE00070F0333009F027C133C0383009F4F5C051
:100EF000393009F404C1363009F01DC196C080387C
:100F000021F0823809F017C108C090911902809130
:100F10001A02882399F0926011C0809121028F708B
:100F20008093E9008091EB0090E025E0969587950D
:100F30002A95E1F7982F91701092E9008091E800CE
:100F4000877F8093E8009093F1001092F100D0C069
:100F5000882319F0823009F0EEC090E08F71907014
:100F6000009721F0029709F0E6C00CC080911F02A3
:100F7000813009F0E0C010921A02333069F5809395
:100F80001A022AC080911F02882331F52091210284
:100F90002F7009F4D0C02093E9008091EB0080FF0E
:100FA0001BC0333021F48091EB00806213C080912C
:100FB000EB0080618093EB0081E090E002C0880F3D
:100FC000991F2A95E2F78093EA001092EA00809137
:100FD000EB0088608093EB001092E9008091E800BC
:100FE000877F89C0882309F0A6C010911F021F7750
:100FF0008091E3008078812B8093E3008091E8006A
:10100000877F8093E800C6DD8091E80080FFFCCFF9
:101010008091E30080688093E300112311F482E063
:1010200001C083E080931C0286C08058823008F0A3
:1010300082C080911F029091200223E08C3D920794
:1010400009F033C083E08C838AE28B837FB7F89406
:10105000DE0115966EE040E050E011E2E62FF0E090
:1010600010935700849140FF03C082958F706F5F8B
:101070008F70282F30E08A3018F0C901C79602C05F
:10108000C901C0968D939D934F5F5F4F44315105C9
:1010900029F77FBF8091E800877F8093E800CE0129
:1010A00003966AE270E0D1DB12C060912102AE01CA
:1010B0004F5F5F4FD4DABC01009709F43CC08091C8
:1010C000E800877F8093E80089819A8122DC809103
:1010D000E8008B778093E8002EC0803861F580911E
:1010E000E800877F8093E800809118028093F100E8
:1010F0008091E8008E778093E8004CDD1CC0882347
:10110000D1F490911F029230B0F48091E800877F73
:101110008093E800909318023DDD809118028823A7
:1011200031F48091E30087FD02C081E001C084E0DA
:1011300080931C0271DA8091E80083FF0AC08091DD
:10114000E800877F8093E8008091EB0080628093C5
:10115000EB00AC960FB6F894DEBF0FBECDBFCF91BB
:10116000DF911F91089508951F9380911C02882399
:1011700071F01091E9008091EC001092E9008091EB
:10118000E80083FF01C087DE1F701093E9001F9104
:101190000895A1E21A2EAA1BBB1BFD010DC0AA1FB8
:1011A000BB1FEE1FFF1FA217B307E407F50720F0D0
:1011B000A21BB30BE40BF50B661F771F881F991F4B
:1011C0001A9469F760957095809590959B01AC0194
:0A11D000BD01CF010895F894FFCF90
:0A11DA000500020000008080808004
:00000001FF
