:10000000B8C00000C6C00000C4C00000C2C00000EC
:10001000C0C00000BEC00000BCC00000BAC00000EC
:10002000B8C00000B6C00000B4C00000D9C50000D0
:10003000B0C00000AEC00000ACC00000AAC000000C
:10004000A8C00000A6C00000A4C00000A2C000001C
:10005000A0C000009EC000009CC000005BC3000068
:100060002FC3000096C0000094C0000092C00000A2
:1000700090C000008EC000008CC000008AC000004C
:1000800088C0000086C0000084C0000082C000005C
:1000900080C000007EC0000005010905A101150017
:1000A0002501350045017501951005091901291033
:1000B000810205012507463B017504950165140978
:1000C00039814265009501810126FF0046FF000944
:1000D000300931093209357508950481020600FF9F
:1000E0000920950181020A212695089102C012017A
:1000F0000002000000400D0F92000001010200010B
:100100000902290001010080FA090400000203002D
:1001100000000921110100012256000705020340D9
:10012000000507058103400005040309041C03487A
:10013000004F0052004900200043004F002E002CC9
:10014000004C00540044002E000000240350004FD7
:10015000004B004B0045004E00200043004F004E76
:1001600000540052004F004C004C0045005200006B
:10017000000011241FBECFEFD2E0DEBFCDBF12E0E2
:10018000A0E0B1E001C01D92AE31B107E1F7F5D1B9
:100190006BC736CF089508950895FC0198E0DF01FC
:1001A000892F1D928A95E9F780E88383848385836C
:1001B00086839283209100013091010140910201D8
:1001C0005091030153FF09C08091040191E08927F8
:1001D00080930401882309F4DBC0C9018170907009
:1001E000892B29F080819181846091838083809123
:1001F000000181FF05C080819181826091838083AD
:100200008091000182FF05C0808191818860918387
:1002100080838091000183FF05C08081918181608E
:10022000918380838091000184FF05C0808191814A
:100230008061918380838091000185FF05C080816A
:1002400091818062918380838091000186FF05C047
:10025000808191818064918380838091000187FFF8
:1002600005C08081918180689183808380910001A5
:1002700090910101A0910201B091030190FF05C08E
:10028000808191819260918380838091000190911F
:100290000101A0910201B091030191FF05C080818D
:1002A00091819160918380838091000190910101FF
:1002B000A0910201B091030192FF05C0808191815C
:1002C0009061918380838091000190910101A091C0
:1002D0000201B091030193FF05C08081918190627A
:1002E000918380838091000190910101A09102018E
:1002F000B091030194FF05C0808191819460918346
:1003000080838091000190910101A0910201B09140
:100310000301A1FF05C08081918198609183808352
:10032000209100013091010140910201509103019F
:10033000852F9927AA27BB27682F6170DA01C90189
:1003400079E1B695A795979587957A95D1F7982FE6
:10035000917046FF09C01282662311F087E017C032
:100360009923B1F081E013C047FF0AC084E0828383
:10037000662311F085E00BC0992351F083E007C09C
:10038000662311F086E003C0992311F082E0828396
:10039000209100013091010140910201509103012F
:1003A00035FF02C0148204C036FF02C08FEF848381
:1003B000C90180709078892B11F0138204C040FF2E
:1003C00002C08FEF838320910001309101014091A1
:1003D00002015091030142FF02C0168204C043FF94
:1003E00002C08FEF868344FF02C0158204C045FF20
:1003F00002C08FEF8583A9E0B2E088E001900D9202
:100400008150E1F70895CF92DF92EF92FF920F9320
:100410001F93DF93CF93CDB7DEB728970FB6F8942D
:10042000DEBF0FBECDBF80911502843009F078C0C9
:1004300082E08093E9008091E80082FF15C08091FE
:10044000E80085FF0CC06E010894C11CD11CC601D8
:1004500067E070E040E050E04CD28823C1F7809123
:10046000E8008B778093E80081E08093E900809139
:10047000E80080FF15C08E010F5F1F4FC8018DDEA1
:10048000E02E012F8E2D902F68E070E040E050E0CC
:1004900082D28823B9F78091E8008E778093E800B4
:1004A00004D1853008F43CC0EDD0813091F5109234
:1004B0000001109201011092020110920301CC245C
:1004C000DD24E0900001F090010100910201109103
:1004D0000301D8D090E0A0E0B0E00C2C04C0880F5D
:1004E000991FAA1FBB1F0A94D2F78E299F29A02B00
:1004F000B12B8093000190930101A0930201B0936E
:10050000030188E090E0C80ED91E90E2C916D1041C
:10051000C1F681E0A2D001C0B5D0C7D08823E1F7F1
:1005200028960FB6F894DEBF0FBECDBFCF91DF91F6
:100530001F910F91FF90EF90DF90CF90089582E090
:1005400060EC42E37AD281E061EC42E376C284B7A8
:10055000877F84BF88E10FB6F89480936000109283
:1005600060000FBEE1E6F0E080E88083108260E882
:1005700075E280E090E046D024C3E9DF789443DF61
:100580003CD5FDCFDA019330B1F0943028F49130AE
:1005900041F0923079F50AC0913211F1923251F561
:1005A00024C0EEEEF0E022E130E028C0E0E0F1E02F
:1005B00029E230E023C0813049F0813018F08230E8
:1005C000C9F40AC0E9E2F1E0849103C0EDE2F1E090
:1005D0008491282F30E012C0EBE4F1E08491F9CF50
:1005E000E2E1F1E029E030E009C0E8E9F0E026E5E9
:1005F00030E004C0E0E0F0E020E030E0ED93FC9378
:10060000C90108959B01AC01F89460E079E08DE3A5
:1006100090E008D5215030404040504056954795D5
:10062000379527953093CD002093CC0082E08093BE
:10063000C80088E98093C90086E08093CA001092C0
:100640008601809186018093850110920802809135
:1006500008028093070278940895282F90918501CD
:100660009F5F97FD90E0809186018917E1F3E92F64
:10067000F0E0EB5FFE4F20839093850188EB809341
:10068000C900089590910702809108029817D1F34C
:10069000909108029F5F97FD90E0E92FF0E0E95705
:1006A000FE4F8081909308020895809107029091F7
:1006B0000802891710F0891B08958058891B089536
:1006C0001F920F920FB60F9211248F939F93EF9367
:1006D000FF939091850180918601981721F488E914
:1006E0008093C9000EC0909186019F5F97FD90E0B6
:1006F000E92FF0E0EB5FFE4F80818093CE00909376
:100700008601FF91EF919F918F910F900FBE0F90F7
:100710001F9018951F920F920FB60F9211242F93CE
:100720008F939F93EF93FF932091CE0090910702B8
:100730009F5F97FD90E080910802981739F0E92FAC
:10074000F0E0E957FE4F208390930702FF91EF916D
:100750009F918F912F910F900FBE0F901F90189522
:100760009C0140911C0250911D024617570718F436
:10077000F90190E03DC06115710511F0AB01F8CFB2
:100780008091E8008E778093E80040E050E0F0CF61
:1007900080911502882309F441C0853009F440C0D6
:1007A0008091E80083FD3EC08091E80082FD30C06A
:1007B0008091E80080FF1CC08091F200282F30E07B
:1007C00007C081918093F100415050402F5F3F4F0F
:1007D0004115510519F02034310598F390E020348B
:1007E000310509F491E08091E8008E778093E8006C
:1007F0004115510569F6992359F60AC080911502F1
:10080000882361F0853061F08091E80083FD0AC0A3
:100810008091E80082FFF2CF80E0089582E00895A1
:1008200083E0089581E008959C0140911C0250915D
:100830001D024617570718F4F90190E03EC06115F4
:10084000710511F0AB01F8CF8091E8008E778093AD
:10085000E80040E050E0F0CF80911502882309F4D1
:1008600042C0853009F441C08091E80083FD3FC05B
:100870008091E80082FD31C08091E80080FF1DC0BA
:100880008091F200282F30E008C084918093F1001D
:100890003196415050402F5F3F4F4115510519F09F
:1008A0002034310590F390E02034310509F491E0D3
:1008B0008091E8008E778093E8004115510561F63C
:1008C000992351F60AC080911502882361F0853082
:1008D00061F08091E80083FD0AC08091E80082FF0A
:1008E000F2CF80E0089582E0089583E0089581E0EA
:1008F0000895BF92CF92DF92EF92FF920F931F93D2
:10090000CF93DF93182F092F7B016A01EFD0B82E08
:100910008823B1F5812F902F9C01E901C114D104E6
:1009200039F0F60180819181E81AF90AC80FD91FC0
:1009300000E010E022C08091E80085FD16C08091A3
:10094000E8008B778093E80058D3C114D10449F0B4
:10095000F60180819181800F911F9183808385E0D2
:1009600010C0C4D0882349F00CC08091F100899355
:100970000894E108F1080F5F1F4FE114F104D9F664
:100980008B2DDF91CF911F910F91FF90EF90DF9012
:10099000CF90BF900895BF92CF92DF92EF92FF92D7
:1009A0000F931F93CF93DF93182F092F7B016A01B9
:1009B0009DD0B82E8823B1F5812F902F9C01E9019D
:1009C000C114D10439F0F60180819181E81AF90A45
:1009D000C80FD91F00E010E022C08091E80085FD1B
:1009E00016C08091E8008E778093E80006D3C1148A
:1009F000D10449F0F60180819181800F911F91838C
:100A0000808385E010C072D0882349F00CC08991A2
:100A10008093F1000894E108F1080F5F1F4FE11483
:100A2000F104D9F68B2DDF91CF911F910F91FF909B
:100A3000EF90DF90CF90BF900895382F282F2EC0D1
:100A4000822F8F708093E900231721F4762F942F43
:100A500050E006C07091EC009091ED005091F000D4
:100A600091FF1BC08091EB008E7F8093EB00809103
:100A7000ED008D7F8093ED008091EB00816080938D
:100A8000EB007093EC009093ED005093F000809198
:100A9000EE0087FD02C080E008952F5F253080F2D0
:100AA0003F703093E90081E0089580911602882319
:100AB0009CF404C0809115028823B9F08091E8006D
:100AC00082FFF8CF8091E8008B778093E80008954B
:100AD00080911502882349F08091E80080FFF8CFCB
:100AE0008091E8008E778093E80008954091E400BB
:100AF0005091E50024E68091EC0080FF24C08091B5
:100B0000E80080FD1EC080911502882311F482E068
:100B10000895853011F483E008958091EB0085FFFE
:100B200002C081E008958091E4009091E50084176F
:100B3000950709F3222311F484E008952150AC01B4
:100B4000DACF80E008958091E80082FFDCCFF9CF12
:100B500041D043D08091D8008F778093D800809186
:100B6000D80080688093D8008091D8008F7D8093D2
:100B7000D80084E089BD86E089BD09B400FEFDCFC0
:100B8000109215021092110210921302109212028A
:100B900080E060E042E351DF8091E1008E7F80934E
:100BA000E1008091E20081608093E2008091E200A8
:100BB00088608093E2008091E0008E7F8093E00067
:100BC0000895E3E6F0E080818E7F808381E080936A
:100BD0001402BECF1092E20008951092E100089531
:100BE0001F920F920FB60F9211242F933F934F93A2
:100BF0005F936F937F938F939F93AF93BF93EF9385
:100C0000FF938091E10082FF0AC08091E20082FFA1
:100C100006C08091E1008B7F8093E100EDD180914F
:100C2000E10080FF17C08091E20080FF13C0809137
:100C3000E2008E7F8093E2008091E20080618093E9
:100C4000E2008091D80080628093D80019BC109295
:100C50001502A1DA8091E10084FF2FC08091E200AB
:100C600084FF2BC084E089BD86E089BD09B400FE05
:100C7000FDCF8091D8008F7D8093D8008091E100D6
:100C80008F7E8093E1008091E2008F7E8093E2006E
:100C90008091E20081608093E200809111028823BC
:100CA00011F084E007C08091E30087FD02C081E07D
:100CB00001C083E0809315026DDA8091E10083FF2B
:100CC00022C08091E20083FF1EC08091E100877FF7
:100CD0008093E10082E080931502109211028091CE
:100CE000E1008E7F8093E1008091E2008E7F80930F
:100CF000E2008091E20080618093E20080E060E0A9
:100D000042E39BDE79D1FF91EF91BF91AF919F912B
:100D10008F917F916F915F914F913F912F910F90A4
:100D20000FBE0F901F9018951F93DF93CF93CDB7F1
:100D3000DEB7AC970FB6F894DEBF0FBECDBFE6E1CD
:100D4000F2E08091F100819322E0EE31F207C9F7E1
:100D500023DA8091E80083FF37C180911602309139
:100D60001702353009F487C0363040F43130C9F10C
:100D7000313070F0333009F027C133C0383009F416
:100D8000F5C0393009F404C1363009F01DC196C0F0
:100D9000803821F0823809F017C108C09091120202
:100DA00080911302882399F0926011C080911A02F9
:100DB0008F708093E9008091EB0090E025E096959C
:100DC00087952A95E1F7982F91701092E90080910C
:100DD000E800877F8093E8009093F1001092F10083
:100DE000D0C0882319F0823009F0EEC090E08F71F6
:100DF0009070009721F0029709F0E6C00CC0809136
:100E00001802813009F0E0C010921302333069F506
:100E1000809313022AC080911802882331F5209113
:100E20001A022F7009F4D0C02093E9008091EB00E2
:100E300080FF1BC0333021F48091EB00806213C02F
:100E40008091EB0080618093EB0081E090E002C034
:100E5000880F991F2A95E2F78093EA001092EA0022
:100E60008091EB0088608093EB001092E900809104
:100E7000E800877F89C0882309F0A6C01091180276
:100E80001F778091E3008078812B8093E30080912D
:100E9000E800877F8093E80008DE8091E80080FF0B
:100EA000FCCF8091E30080688093E300112311F46C
:100EB00082E001C083E08093150286C080588230B2
:100EC00008F082C0809118029091190223E08C3DB5
:100ED000920709F033C083E08C838AE28B837FB76B
:100EE000F894DE0115966EE040E050E011E2E62F46
:100EF000F0E010935700849140FF03C082958F70FB
:100F00006F5F8F70282F30E08A3018F0C901C796C4
:100F100002C0C901C0968D939D934F5F5F4F4431CE
:100F2000510529F77FBF8091E800877F8093E80013
:100F3000CE0103966AE270E013DC12C060911A02DF
:100F4000AE014F5F5F4F1EDBBC01009709F43CC050
:100F50008091E800877F8093E80089819A8164DC32
:100F60008091E8008B778093E8002EC0803861F58F
:100F70008091E800877F8093E80080911102809340
:100F8000F1008091E8008E778093E8008EDD1CC030
:100F90008823D1F4909118029230B0F48091E80047
:100FA000877F8093E800909311027FDD809111028A
:100FB000882331F48091E30087FD02C081E001C005
:100FC00084E080931502BBDA8091E80083FF0AC0B9
:100FD0008091E800877F8093E8008091EB00806239
:100FE0008093EB00AC960FB6F894DEBF0FBECDBF7A
:100FF000CF91DF911F91089508951F93809115025D
:10100000882371F01091E9008091EC001092E900C2
:101010008091E80083FF01C087DE1F701093E90014
:101020001F910895A1E21A2EAA1BBB1BFD010DC042
:10103000AA1FBB1FEE1FFF1FA217B307E407F50788
:1010400020F0A21BB30BE40BF50B661F771F881F64
:10105000991F1A9469F760957095809590959B01FA
:0C106000AC01BD01CF010895F894FFCF52
:00000001FF
